:020000040000FA
:10000000A04E002045370000D3050100193700003D
:1000100019370000193700001937000019370000A0
:10002000000000000000000000000000F12F0000B0
:100030001937000000000000892F00001937000068
:100040007D3000007D3000007D3000007D300000FC
:100050007D3000007D3000007D3000007D300000EC
:100060007D3000007D3000007D3000007D300000DC
:100070007D3000007D3000007D3000007D300000CC
:100080007D3000007D3000007D3000007D300000BC
:100090007D3000007D3000007D3000007D300000AC
:1000A0007D3000007D3000007D3000007D3000009C
:1000B0007D3000007D3000007D3000007D3000008C
:1000C0007D3000007D3000007D3000007D3000007C
:1000D0007D3000007D3000007D3000007D3000006C
:1000E0007D3000007D3000007D3000007D3000005C
:1000F0007D3000007D3000007D3000007D3000004C
:100100007D3000007D3000007D3000007D3000003B
:100110007D3000007D3000007D3000007D3000002B
:100120007D3000007D3000007D3000007D3000001B
:100130007D3000007D3000007D3000007D3000000B
:100140007D3000007D3000007D3000007D300000FB
:100150007D30000053B94AB9002908BF00281CBFF0
:100160004FF0FF314FF0FF3000F00CB8ADF1080C4C
:100170006DE904CE00F008F8DDF804E0DDE90223C3
:1001800004B07047704700BF2DE9F04786468C46A3
:100190000846089E154674461946002B40F0C1805B
:1001A0008542B2FA82F245D94AB1C2F1200300FA7F
:1001B00002FC954094402EFA03F343EA0C0C4FEAFC
:1001C000154EA8B2230CBCFBFEF80EFB18CC08FBA6
:1001D00000F943EA0C43994528D9EB1808F1FF3799
:1001E00004D2994502D9A8F102072B44A3EB0903D5
:1001F000A4B2B3FBFEFC0EFB1C330CFB00F044EA84
:100200000344A04214D92C190CF1FF3304D2A042AC
:1002100002D9ACF102032C44241A43EA07401EB170
:10022000D440002334607360BDE8F0874746DDE7C3
:100230006346F1E792BB431B01214FEA154EAFB273
:10024000200CB3FBFEFC0EFB1C330CFB07F840EA52
:100250000343984561D9EB180CF1FF3004D298455F
:1002600002D9ACF102002B44A3EB0803A4B2B3FB08
:10027000FEFC0EFB1C330CFB07F744EA0344A742C9
:100280004DD92C190CF1FF3304D2A74202D9ACF19D
:1002900002032C44E41B43EA0040C0E7C2F1200300
:1002A0009540944020FA03F12EFA03F34FEA154EDD
:1002B0009040AFB20343B1FBFEFC0EFB1C10190CC7
:1002C0000CFB07F841EA0041884522D969180CF176
:1002D000FF3004D2884502D9ACF102002944A1EBD9
:1002E00008019BB2B1FBFEFC0EFB1C110CFB07F7D7
:1002F00043EA01439F420ED9EB180CF1FF3104D2BF
:100300009F4202D9ACF102012B44DB1B41EA0041C0
:1003100093E76046E3E76146F7E76046A4E7634694
:10032000B8E7834206D916B9002108467CE7C6E93A
:1003300000E0F9E7B3FA83F78FB9834201D372453E
:1003400008D8BEEB020460EB030301209C461EB9F3
:10035000002169E73846FAE7C6E9004CF8E7C7F13B
:10036000200CBB400EFA07F522FA0CF42EFA0CF121
:10037000BA401C4320FA0CF3B8404FEA1449014339
:100380001FFA84FEB3FBF9F809FB18300B0C08FBCD
:100390000EFA43EA00439A4540D9E31808F1FF30CA
:1003A00004D29A4502D9A8F102002344A3EB0A0320
:1003B00089B2B3FBF9F809FB183308FB0EFE41EADA
:1003C00003418E452CD9611808F1FF3304D28E45C4
:1003D00002D9A8F10203214443EA0040A1EB0E0137
:1003E000A0FB02984145CE46434602D306D14D4577
:1003F00004D20138B9EB020E68EB0403002EA7D03B
:10040000B5EB0E0261EB030101FA0CFC22FA07F3D3
:10041000F9404CEA0303C6E9003199E74046C5E7D5
:100420004346D9E710F8012B11F8013B012A28BFF8
:100430009A42F7D0D01A7047034611F8012B03F8FF
:10044000012B002AF9D17047034613F8012B002A2B
:10045000FBD1181A01387047014B1878704700BF5C
:100460003823002008B504480EF0A1FBBDE8084081
:10047000012011F046BE00BFFC49010008B521B1C2
:10048000BDE8084005480EF092BB05480EF08FFB12
:10049000BDE80840012011F031BE00BF164A01003E
:1004A000324A010013B50C4C206800F0ADF96846E3
:1004B00000F0F8F9BDF8000000F0A6F9BDF8020060
:1004C00000F0A2F9BDF8040000F09EF900214FF4FD
:1004D00080400DF0CBFBE7E7F01700208A0713B54B
:1004E00053D5830751D5012000F06CF90122284B28
:1004F000284C29481A700EF05AFB21680131052951
:100500001FDC0029B8BF0521244821600EF04FFBF5
:100510002368C3B922480EF04AFB684600F0C2F9CE
:10052000BDF80430BDF80220BDF800101D480EF0E3
:100530003EFB4FF40040002102B0BDE810400DF03A
:1005400095BB0021E0E7013B042B1ED8DFE803F058
:10055000031517191B0014480EF029FB684600F01C
:10056000A1F9BDF80430BDF80220BDF800100D4817
:1005700002B0BDE810400EF01ABB0C48ECE70C4886
:10058000EAE70C48E8E70C48E6E702B010BD00BF18
:1005900038230020F01700203D4A01004F4A010097
:1005A000594A0100734A01008D4A0100AA4A01001C
:1005B000C44A0100E14A0100FB4A01002DE9F04173
:1005C00088B06D4602AF4FF00208404BC7F810806C
:1005D0007B6100234FF486513D4807F1100201F082
:1005E0005BFE00F031F9044630B13A480EF0DFFA14
:1005F0001837BD46BDE8F0810AF0A8FF78B188B091
:1006000002AA354BC2E90530032342F8103F2346C6
:100610004FF4C2512E4801F03FFEAD46E8E72F48A7
:100620000AF0CEFF044630B905F098F960B188B001
:1006300002AA2B4BE6E701462A480EF0B8FA2146FB
:1006400029480EF0B4FAD3E7284806F0BDFC284844
:1006500000F0AEF8064610B101462648F1E7264BF9
:10066000C7E904834FF48651034607F11002184886
:1006700001F012FE0123424600932049204B2148FD
:1006800005F05CFE044648B188B002AA1E4BC2E9E0
:100690000530032342F8103F3346B9E71B4BC7E947
:1006A00004834FF48651034607F11002084801F015
:1006B000F3FD013404F0010100200BF013F80021D8
:1006C0004FF400400DF0D2FAF3E700BF184B0100E1
:1006D000903F0100394B0100544B0100DD04000044
:1006E000AB4B01006F4B01008E4B01000802002054
:1006F0001C020020CB4B0100E84B010040410100EF
:100700003841010024020020FF4B0100254C01006C
:100710008B1E59425941014B197070473A230020F2
:100720004B1E59425941014B197070473B23002021
:1007300008B5012BBDF808100CD171B90A4B1B6824
:100740000BB9012008BD1078012809D800F001007C
:100750009847F6E76FF00C00F4E76FF00600F1E75A
:100760006FF01200EEE700BF0C1800202DE9FF41EA
:100770001F460D4B054658680C46164680B1D1F809
:100780000C808047094B324618700123CDE9018364
:10079000BDF828302146009328463B4611F0B0F8BA
:1007A00004B0BDE8F08100BF0C1800203923002000
:1007B00020B1034B02681A6042685A6000207047FB
:1007C0000C18002007B50C4B8DF807001B7883B17F
:1007D0000A490B4B00204B600A4BC8608B600DF13F
:1007E00007030B6101238B8208F040FC03B05DF826
:1007F00004FB6FF00C00F9E73A230020F417002007
:1008000078410100F9EA000000B50D4B89B01B7872
:10081000019093B10021182202A813F0B4F9094BFA
:100820000020039301AB0493042302A9ADF8143014
:1008300008F0ACFD09B05DF804FB6FF00C00F9E7BF
:100840003B230020DC41010038B50025124C54F850
:10085000060C12F07CFB28B910480EF0A8F94FF0F6
:10086000FF3038BD14F8013C63B154F8060C8368BE
:1008700021461B689847021E07DA294608480EF0F1
:1008800096F9ECE76FF08502F7E70135032D04F1E7
:100890001404DCD10020E4E70A420100784C010096
:1008A000994C01002DE9F04F142200268BB0074629
:1008B00031460DEB020013F066F90DF10E030793BC
:1008C0000223B146B0463546B2464FF0140B334CC6
:1008D0000893637953B10122237902FA03F3069353
:1008E000237C8DF82430637C8DF825302068836864
:1008F00005A95B689847011E10DA29480EF057F9E0
:100900000135032D04F11404E3D13846A7F8009013
:100910007E80A7F804800BB0BDE8F08F45B9D146C2
:100920006279BDF90E3042B91E480EF040F9E7E792
:10093000012D0CBF5646D046F2E7E2791748042A4B
:1009400008BF22680BFB05000ABF9268E189118984
:10095000807A5943227C800644BF02F1FF32D2B232
:100960000491A07904A90093019208F061FF002886
:10097000009B08D1049B019A13419BB22DB9994663
:1009800001251434A5E7CFDBF7E7012D03D11E467F
:10099000022514349DE79846B7E700BF04420100E2
:1009A000BB4C0100D04C01002DE9F04F91B00093F9
:1009B00002F004030293C2F3C20301338407054625
:1009C0000E46DDF868900392059340F0BB81041D4C
:1009D00030B1072909D86FF01B0011B0BDE8F08FC6
:1009E00001F00706341DC6F10806009B4FF0000811
:1009F0004FF0040A591E4FF0FF3347460193C34698
:100A00005346CDF810800DB1009A22600598002859
:100A100000F3E8809848009A824203D397488242C4
:100A2000C0F0E080039AA4EB050E92074FEA9E0007
:100A300000F103810F2F00F2B180002D00F005813D
:100A400007F140020DEB020C019A0CF8200C0CF897
:100A5000102C049801300490E7E07A285DD84B28E8
:100A60000ED8472859D829282DD8252852D054D80F
:100A700020287AD02338D0F1000B4BEB000B74E028
:100A80004C382E2849D8DFE800F0704848484848DC
:100A90004848484848484B484848484848484859C2
:100AA000484B4B595959704B6D487048184B184872
:100AB00048827F4B48484B487F0000204FF0000B96
:100AC0004FF0040A38E001222A38C0B202FA00F0DE
:100AD00010EA0E0F49D110F0625C2FD110EA020B20
:100AE00043D06046013C5444B4FBFAF40AFB04F4DE
:100AF000002D61D0A3EB050CA4446645FFF46BAF59
:100B0000002868D1042B47D159F8043B2360042303
:100B100004342AE0019A013A01924FF0000B24E0DC
:100B200011F8010C6C2834D1002011F8023C8346E6
:100B30006C2BC5D14FF0080A5346D3E709F10709DA
:100B400029F00709073424F00704F9E802AB35B1AE
:100B500006982044B0423FF63EAFC4E900AB4FF0E8
:100B6000000B08344FF0080A534611F8010F002813
:100B700078D0BBF1000F7FF470AF2528F5D14FF08E
:100B8000010B019B013301934FF0040AECE7584637
:100B900094E700208346A5E7082B02D06FF01500EC
:100BA0001BE709F1070929F00709F9E80223C4E95D
:100BB000002308230834D8E768B9042B02D109F1CF
:100BC0000409A4E7082BE9D109F1070929F007096D
:100BD00009F10809EDE7059A013A059259F8042B45
:100BE000009210E7039A900720D54FF0010CA4EB78
:100BF000050E4FEA9E00BEF5007FCFD20F2FCDD855
:100C0000F5B107F140020DEB020E019AC0B20EF8E9
:100C1000200C0EF8102CBCF1000F3FF41AAF60F05E
:100C20007F000EF8200C08F101080137C5F1080219
:100C30004FF6DA7E0434069297E74FF0000CDAE7BD
:100C4000BCF1000F01D00136EFE702980236002810
:100C5000EBD10098CDE90631FFF7F6FBDDE906316F
:100C60000644E2E7631BB3F5806F97D245B9A6F15E
:100C70000804E018B1E600BFBC3B0100207201008F
:100C8000029A9B0828602B709DF81030C2B1EB705F
:100C900085F80280B8F1000F05D0002208A8C5F140
:100CA000010C97420ED14FF0000AC5F101030DF17E
:100CB000200901930DF1300B574512D1601B8CE6D2
:100CC0006B70E5E710F8013B190608D504EB0C0E34
:100CD000764503F07F03FFF47EAE04F8013B01325A
:100CE000DFE7B8F1000F03D099F90020002A17DBE5
:100CF000029BD3B11AF80B2004F8012B0022019BB0
:100D0000981820448642FFF466AE99F800000099D6
:100D100004F8010B2046039212F028FF039A1444B2
:100D20000AF1010A09F10109C6E799F8002055F80E
:100D300022300093029B009845F82230FFF784FB95
:100D4000421CDCE76FF00D0047E600BF2DE9F04FD5
:100D500095B000AFBB61BB6F0446C3F3C0038A46C6
:100D600090F802B07A623B6141B9457800780BEBAC
:100D700080002044554517D8A0EB040AE3787B6136
:100D8000BBF1000F02D0BB6FD80716D47B6953BBF1
:100D90007B6A1BB151462046BA699847554628469A
:100DA0005437BD46BDE8F08F461C3046FFF74CFB7C
:100DB000013030440AF1010ADCE7237862683B62C3
:100DC0009B00FB603B6AFA6104EB83097B6A002BA2
:100DD00040F0FF80C8460026554609EB0B0AD04577
:100DE00051D1D94413E0BB6F9907D1D523789946E7
:100DF0003B629B00FB60636804EB8909FB617B6AD3
:100E0000002B7AD15546BBF1000F4FD15E46BB6F28
:100E100013F0050F0CBF4FF0020B4FF0010B7B6975
:100E200009EB430ABB6F03F002037B62D145B6D0E6
:100E300019F8021B19F8013C54F82380AB4B984574
:100E400002D3AB4B984538D33B69002B42D0F869AD
:100E50000DF084FE00283DD0E8468AB06A46A54BD6
:100E60005361FB69C2E906314FF400731384A24B4E
:100E700042F8103F00234FF41251A04801F00CFA41
:100E8000023DC546D2E718F8013B54F82300FFF7AE
:100E9000DBFAFB6F01303BB1D7F880309E423EBF9A
:100EA000FB6F23F816000136054498E7BB6F13F07B
:100EB00004061CBF7E6AD944A9E73B6923B1F869DF
:100EC0000DF04CFE0028C7D1BB6FDA0705D4A5EBA7
:100ED0000B05ABE77B6A002BA8D04046FFF7B4FABE
:100EE000FB6F43B1D7F880309E423FBFFA6F431C7F
:100EF00022F816300136054498E7BBF1000F6ED09A
:100F0000BB6F13F004066DD0D846002607F14000F1
:100F10005A46494612F02AFE7B69D9445B007B6041
:100F20007B6909EB4303BB60BB6F03F002033B60CB
:100F3000BB684B4558D1B96F6378B86F890748BF14
:100F4000002106EB030258BF4FEA5801C507D2B291
:100F500000F19A8010F0040F14BF40460020FB619E
:100F60006270A070E1702046BA69F9687B6A9847A0
:100F7000051EFFF614AF3B6A41462370FB69BA6950
:100F800063707B6984F802B0E37007F140007B6A0C
:100F90009847B0F10008C0F2A480FB68AAEB0B01EF
:100FA000C91A7B684846C91ABA697B6A98470028FB
:100FB000C0F299804FF0000BA84408EB000507F140
:100FC000300AB34562D30021BA6908467B6A984764
:100FD000E5E65E464FF0000807F1300098E75E4610
:100FE000D84699E7B04697E719F8021B3F4B19F826
:100FF000015C54F82500984202D33D4B98421DD322
:101000003B6923B1F8690DF0A9FD002890D13B6838
:10101000FBB908F1280307F1280208F1010003EBEE
:10102000020C07F1500308F1020853FA80F00CF8A3
:10103000101C5FFA88F800F8105C79E73B692BB167
:10104000F8690DF08BFD00287FF472AFBB6FDB07F2
:1010500009D506F1280307F12802711C9E1806F82D
:10106000205CCEB264E7BB6F58077FF561AF08F133
:10107000280307F1280208F1010103EB020808F830
:10108000105C5FFA81F853E7002068E71BF80A302C
:1010900054F8239087F82F30FB6FFBB133F81B8097
:1010A0000121BA697B6A07F12F00984700281ADBF3
:1010B0000544B8F1000F06D14846FFF7C5F900F125
:1010C00001081FFA88F841464846BA697B6A984782
:1010D000002808DB05440BF1010B72E7D7F87C8090
:1010E000DEE745465BE6054659E600BFBC3B01002E
:1010F00020720100EE4C01000400000110400100CC
:10110000014B1860704700BF8002002080B5054683
:101110000E46174698460CF0C3FD034612F044FDF8
:101120000446DFF81890424649F800303946304608
:10113000A84754F8090002F07FFB00BF0800000038
:101140002DE9F047058B04462807904611D4022963
:1011500005F0070540F0CD8020460DF0E2FF78B1A4
:101160000138218B042811D8DFE800F0C3106D8509
:10117000950001290CBF45F0100545F02005258399
:1011800088F31188BFF36F8FBDE8F08701F0070A7D
:10119000AA4500F0A6800027B9463E46A368002B6A
:1011A00000F0BD8041F00801218388F31188BFF36E
:1011B0006F8FA168002900F0BB800D68002900F046
:1011C000B780334652462046D1F80480C047002DF0
:1011D00076D02B6829461D46F0E701F007035A1F19
:1011E000012A1BD8002221F00701062B276889B2AB
:1011F000C4E9002209D13B4603E0628B01326283DD
:101200001B68002BF9D141F00201204621830DF02B
:1012100088FF00287BD041F0200177E0042B0AD121
:1012200021F0070189B2204621830DF07AFF10B129
:1012300041F020012183218B01F0070AAA4550D0FB
:101240000027B946AAE7236921F0070141F006010A
:10125000062DD3F8009021832DD1B9F1000F40D095
:1012600041F00801218388F31188BFF36F8F204676
:101270003949C84729E021F00701236941F00401F9
:1012800089B2042DD3F804902183E6D000274FF0D3
:10129000040A3E4682E721F00701236941F0050177
:1012A00089B2052DD3F808902183D6D000274FF0BE
:1012B000050A3E4672E700274FF0060A3E466DE7F4
:1012C0002B4687E7B9F1000FD1D14FF02003EFF3A0
:1012D000118883F31288BFF36F8F238B23F00803E9
:1012E0002383258BEA062ED525F01003238305F0F2
:1012F00007056669218B002EBFF66FAF00232768B4
:10130000C4E9003321F0070141F001012183218B61
:101310004FF0000901F0070AAA457FF43FAF002F04
:101320009BD041F00801218388F31188BFF36F8FB0
:10133000002FC7D03D6839463346524620460DF04F
:101340001CFF2F46F4E7AB067FF51AAF25F020030C
:10135000238305F00705FFE6A7F10000044608B562
:101360004FF02002EFF3118382F31288BFF36F8FE7
:1013700009F042FF204602F015FA03480DF017FC71
:1013800001F0F6FCFCE700BFA24D010000F01F02D7
:1013900040090DD001280DD1094B03EB8203D3F88E
:1013A000002222F0E04242EA0171C3F800127047C5
:1013B000044BF2E70023803253F82230FFDE00BFF7
:1013C000002884500025845038B50124134B144D57
:1013D000C3F8004502230321C5F8D0360020FFF7EB
:1013E000D5FF20460321FFF7D1FFC5F8044721466A
:1013F000C5F804492120C5F8004BFFF7C7FF214677
:101400002020FFF7C3FF21460B20FFF7BFFF214637
:101410000A20FFF7BBFF002038BD00BF00100050BE
:101420000040005007B50DF1070010F094FE114B7D
:1014300098421CD14FF480620F4B1049C3F8B82575
:101440004FF40062C3F83C259DF8070010F06FFED2
:101450000B499DF8070010F065FE01209DF807304C
:1014600098400AF0B7FA002003B05DF804FB6FF073
:101470000B00F9E70000AD0B00A002502CA00250B9
:1014800028A10250052370B5144D154E2C78013457
:10149000B4FBF3F303EB8303E41A10F003FE114AE9
:1014A000137823B156F82430C01A072814D94FF006
:1014B0005023D3F8141141B10021C3F81411D3F80B
:1014C00014312C700CB9012313702C7810F0EAFD44
:1014D00046F82400012070BD0020FCE73D230020D9
:1014E000141800203C23002048B1054B054A1B6816
:1014F000B3FBF2F35843044B43F001031847704722
:10150000EC03002040420F003041010070B5049C04
:10151000C4F30726304609F071FCE5B201462846BF
:1015200010F011FE00220120074BA40B04F0FC0474
:101530001A51A8400AF054FA304609F013FE284622
:10154000BDE870400AF0C0BA80A00250F0B583B088
:1015500000AF381D0AF0B2FA284B98424BD109F07F
:10156000E3FD041E13DA38790AF0AEFA6D4688B04E
:101570006A46234BC2E90534032342F8103F002397
:101580004FF4C2511F4800F087FEAD462FE040F6F1
:1015900007031D4D7C71AE68FB8074687B6814B9CD
:1015A0006FF05704E2E708212846184AA047041EB6
:1015B000DCDB3369002BF3D0012208212846984751
:1015C000041ED3DB01203B7998400AF003FA7879B6
:1015D0003D79FE7910F051FD0146284610F0A7FD37
:1015E0000B4BB60045F000459D51002CBED1204666
:1015F0000C37BD46F0BD6FF01204B7E70000AD0B2D
:10160000CF4D010088400100C43C010015160000C8
:1016100080A102502DE9F341144683681B690BB188
:1016200000229847C4F30726304609F0EFFB054631
:10163000304610F022FD4FF00008E7B20146384670
:1016400010F085FD104B220E920043F802803046C8
:1016500009F0D4FB0D4A4FEA943C0CF0FC0C47F027
:10166000004342F80C300146384610F05BFD084B51
:1016700005F132020093304643460194520010F0C7
:1016800005FD02B0BDE8F08180A1025080A00250AB
:101690000D1500000AF080B87FB570B9124B1348E1
:1016A000059302234FF4825104AA04930EF085F8A7
:1016B0006FF0150007B05DF804FB836863B90C4B4D
:1016C0000A48059302234FF4825104AA04930EF0B2
:1016D00074F86FF00400EDE71B681BB107B05DF80C
:1016E00004EB18471846E5E7004E010030400100C2
:1016F000114E010030B587B008B101B16AB9134B82
:101700001348059302234FF4825104AA04930EF068
:1017100054F86FF0150007B030BD84680CB1E5686F
:1017200065B90C4B0A48059302234FF4825104AA71
:1017300004930EF042F86FF00400ECE741F8040B5C
:10174000E36807B0BDE83040184700BF2F4E0100E6
:1017500030400100114E010030B51346044687B0F9
:1017600068B91A4B1A48059302234FF4825104AA10
:1017700004930EF022F86FF0150007B030BD00683A
:1017800060B9144B1248059302234FF4825104AA06
:1017900004930EF012F86FF00100EEE782680AB1D0
:1017A000956865B90C4B0A48059302234FF48251A2
:1017B00004AA04930EF001F86FF00400DDE70A4676
:1017C000AC46616807B0BDE8304060475B4E010041
:1017D000304001006C4E0100114E01000020014B11
:1017E000186070470000072030B50C460E4985B0E0
:1017F0000291D0F8AC110546CDE9003100F1E001CD
:101800004FF0FF3320460AF081FF50B9012384F8DE
:101810006430D5F8A83123B1204605B0BDE830408A
:10182000184705B030BD00BFB1F8000038B50C4610
:10183000114605460EF03EF8034638B928460449DD
:101840000EF038F803460020236038BD0120FBE786
:101850000D7001002DE9F04F0123814605694668AE
:1018600085B005F55977D7E8EF2F002A03D1C7E8EF
:10187000E13F0029F7D10CBF1A46002240F0B180A9
:10188000B368B16A05F5E4781C1F10460EF097F8AE
:1018900084425FD8013A00F09E80B2FA82F24FF0A3
:1018A0000044D44072682046073222F00302C5F893
:1018B0006022B16A0EF083F8C5F86402B36A40464C
:1018C0006343033323F0030302EB4302230103EBDF
:1018D0004403093323F0030303EBC403C5F8582280
:1018E0001A440832C5F854227368C5F85C42C5F83A
:1018F00050323D4BC5E9A963316800F0BDF904469B
:1019000030BBD9F804A0D9F81090DAE9073409F50A
:10191000307B012B584608BF103C11F059FD0023C5
:10192000DAF8240031494FF4806201EB8021009302
:10193000584623460BF0FEFD09F52C702C4911F09A
:1019400009FDDAF8140083685C682CB96FF057045D
:10195000002139E0013298E74B46264ADAF81810A0
:10196000A04704460028F3D1DAF8140083681B6905
:10197000002BEBD00122DAF8181098470446002813
:10198000E6D11D4B2846C5F8A8311C4BC5F8AC3133
:101990001B4B0393D5F810320293D5F80832CDE9EA
:1019A0000083D5F86832B26AD5F8601300F02CF9DC
:1019B00004460028CCD105F1E0000AF055FF0028CC
:1019C000C5F868030ADB022138460DF0A8FF20465F
:1019D00005B0BDE8F08F6FF00B04B9E76FF01504A8
:1019E000B6E76FF07704F2E707F90000F027002070
:1019F000EDF80000E1F80000051A000095FA00007B
:101A00004FF9000013B5044640B100230122CDE98F
:101A10000032074BD0E909120AF02CFEA36E1B68B6
:101A200023B1E06E02B0BDE81040184702B010BD0F
:101A30000D70010013B504460846216901F559717E
:101A4000D1E8AF1F022910D193B1A0B10121CDE996
:101A500000311346D0E909120AF00CFE074B9842F8
:101A600008BF6FF00B0002B010BD6FF00F00FAE777
:101A70006FF04C00F7E76FF00100F4E72EF8FFFF7E
:101A80002DE9F74388461546066906F55973D3E8EC
:101A9000AF3F022B5FD1136823B96FF0150003B07D
:101AA000BDE8F0831B78002BF7D0D6F86093B9F12E
:101AB000000F33D106F5D8774FF0FF324FF0FF33E8
:101AC00038460BF0CBFA30462A6801A9FFF7AEFE84
:101AD000019C1CB938460DF020FFDEE705F1080334
:101AE000A3666B6984F86490E366E46360B138468A
:101AF0000DF013FF21463046236E2A68FFF774FE6F
:101B00000020C8F80040CAE72022296804F14000FC
:101B100011F0F4FF38460DF000FFF1E730460F49B1
:101B20000DF0C8FE04460028B7D005F1080383660F
:101B30006B69C063C366002380F864302022296883
:101B4000403011F0DBFF22460121304600F03EF824
:101B50000028D5D0A1E76FF00F00A0E70D700100BD
:101B60002DE9F04F05460E4690460027D0F8B0A06C
:101B700085B0AAF5AE7421463046FEF753FCE0B9B5
:101B8000114BA4F1400B0293DAF810303246CDE944
:101B9000008329464FF0FF335846AAF5CE790AF064
:101BA000B5FD60B97023012203FB079383F864201D
:101BB000DAF80C300BB158469847703417B105B0BD
:101BC000BDE8F08F0127D6E7F7FA00001FB51446ED
:101BD00090B18AB1012912D10A4B00F1E0010293C0
:101BE000D0F8AC31403201934FF0FF3320460093E0
:101BF0000AF08CFD04B010BD6FF01500FAE700206C
:101C0000F8E700BFF7FA00002DE9F04387B00E4671
:101C1000DDE90E811446DDE910251F4630B329B3F6
:101C2000DFF850C000F1E009002D08BF65469EB9FD
:101C3000CDE9034400F5CE742046059611F06DF908
:101C400003ABCDE900432A463B46414648460AF0ED
:101C500031FE07B0BDE8F083002241460E924846AF
:101C60002A4607B0BDE8F0430AF04EBF6FF01500FA
:101C7000EFE700BF611B0000F0B50E46044689B0D7
:101C800000286FD001230246C3630023D0F89810C8
:101C9000364F403040F80C7C42F8301FCDE901331C
:101CA0004FF0FF330093C36D10F0F7FB304A06ABE3
:101CB00092E8030083E8030018460AF0EDFB0546AE
:101CC000D8B904F134000AF0C9FB0546A8B9394671
:101CD000284805AA10F0BDFB054670B9059B9A6817
:101CE00072B10C33D4F89400C4F8A0300DF034FF76
:101CF000C4F8D40030B96FF00B05284609B0F0BD28
:101D00000346EFE7D4F894000DF026FFC4F8D8009E
:101D10000028F0D0D4F88C30D4F8A010C4F8A83043
:101D20000423C4F8AC30C4F8C4300223A362124BBD
:101D3000B4F89420D4F8D470C4F8B810C4F8D01013
:101D4000D4F89010236204F1A403A4F8B020C4F8DE
:101D5000A470C4F8C010A4F8C820C4F8BC00A661E0
:101D6000E362CAE76FF01505C7E700BF964E0100B2
:101D7000B0400100A04E01006C4201002DE9F04787
:101D8000044607464FF00109DFF8508014B9384681
:101D9000BDE8F08794FAA4F5B5FA85F509FA05F3DC
:101DA0002E0108EB05156FEA030A24EA03042B7BD6
:101DB000002BEBD058F806301B694BB946447368CA
:101DC00004222846196807EA0A0700F051FADDE7FD
:101DD000284698470028D9D1F0E700BF9840010075
:101DE00030B5002289B00F490F4811F0CAFC00221B
:101DF00000230024CDE906230E230C4DCDE9033446
:101E00004FF440722846CDE90144094B094900943A
:101E10000BF09CF80849284611F060F9204609B0FB
:101E200030BD00BF3D1E000020110020980C002096
:101E300015210000F02B0020A84E010001480BF0F6
:101E4000F7B900BF2C0700202DE9F04780461F4856
:101E50000F460DF0D3FE0646002830D00025284658
:101E6000BDE8F087237B73B12368DB680BB12046A4
:101E7000984723681B69D3B9636804222046196810
:101E800000F0F6F9013610344C45EBD3B8F1000FF1
:101E9000E5D0002DE2D02846FFF770FF0546002F61
:101EA000F7D000214FF4A4700BF0E0FEF1E72046DC
:101EB00098470028E0D00AFA06F31D43E2E70546FA
:101EC0004FF0010A024CDFF80C90DDE738180020D3
:101ED00098400100A8400100014B53F820007047D2
:101EE000AC42010008B5034608462BB1044A136012
:101EF00000F074FC002008BD6FF01500FBE700BF88
:101F0000B002002010B5044C237813B903480BF03D
:101F10008FF90123237010BD3E2300202C070020E1
:101F200010B5044606480DF069FE3CB1054BD3E8F8
:101F3000EF1F0139C3E8E21F002AF8D110BD00BF2E
:101F4000301800203418002000200146034BD3E84D
:101F5000EF0FC3E8E21F002AF9D1704730180020C4
:101F600070B5FFF7F1FF0546074C084EB44200D3A9
:101F700070BD63685B792BB123685B6813B1294638
:101F8000204698471034F1E798400100A84001002E
:101F900010B5044C044920460DF0B4FA034B1C6004
:101FA00010BD00BF1806002098420100281800202C
:101FB00008B50023074A4FF400411370064A07484A
:101FC0001360074A1360FFF78DFFBDE80840FFF775
:101FD000DFBF00BF3F23002030180020F9FB0000C6
:101FE0003418002001460022002301480DF0ABBA4E
:101FF0001806002001480DF044BB00BF1806002061
:10200000024B014618680DF08EBB00BF2818002057
:1020100001480DF0C4BB00BF1806002070B5264B68
:102020001878002847D0FFF7E5FF054670B1234B2D
:10203000D3E8EF1F0139C3E8E21F002AF8D1204C92
:10204000204EB4422DD32846FFF7DAFF1E4B1F4C1B
:102050001B68002B19DD11F04DFB4FF47A72A0FBC9
:10206000020302FB0131C30B43EA4143D4E90020E0
:102070009B1A40F2E9324FEAD13161EB0001934201
:1020800071F1000101D3FFF76BFFD4E9003213F5C2
:102090007A7342F10002C4E90032BDE87040FFF7F4
:1020A000B7BF63685B7923B12368294620461B6864
:1020B00098471034C5E770BD3E2300203418002037
:1020C00098400100A840010030180020181100209D
:1020D00070B50D4D297861B90120FFF7B5FE0B4CA5
:1020E0000B4EB44206D3FFF799FF0028FBD1012322
:1020F0002B7070BD63685B791BB1236820469B68B9
:1021000098471034EDE700BF3F23002098400100BE
:10211000A840010000212DE9F0470846FFF794FE92
:10212000044658B340F267684FF0000911F03CFDD7
:102130001B4B1C4A1B58136033B11B4B1B68092BEC
:1021400002DD1A480BF074F80025194FDFF85CA087
:1021500044B12046FFF712FE044618B94FF0FF388D
:102160004FF0FF39FFF75AFF064628B9B5B9424686
:102170004B4650460BF082F83546E9E74FF0FF3802
:102180004FF0FF39D2E72B689B691BB1002228462C
:10219000114698471035BD42F5D3E8E7054DFAE7FB
:1021A000080000002C180020341800202C07002004
:1021B000A84001009840010013B518480DF01EFD1D
:1021C000174B1B787BB14FF02003EFF3118483F39F
:1021D0001288BFF36F8FFFF721FF84F31188BFF3DD
:1021E0006F8F02B010BD0F4B1B68002BF9D050B998
:1021F000002200230C48CDE900234FF400420023C5
:102200000BF092FFEDE70928EBD1074811F0C5FA72
:10221000064802B0BDE810400BF00AB834180020A0
:102220003F2300202C180020201100202C07002024
:1022300010B5064B04461B6898472146A060044829
:102240000DF0FFF9BDE81040FFF7B6BFB002002067
:1022500018060020044A054B9B1AB1EBD30F34BF7C
:1022600052F8310000207047903F01009840010073
:10227000084B10B4C31A44681B110133237143681F
:102280009A7101224368196043685A7110BCFFF7C4
:1022900039BE00BF984001002DE9F04F8FB0C1F367
:1022A0004A2804AF0D469146B8607B600C0DB8F12A
:1022B000000F63D000264FF0040B4FF00A0A07F11D
:1022C0001403C7F80C80C7E907667E620193CDF856
:1022D00008B0CDF800A007F11C0332464846F96863
:1022E000FEF734FDB0F5006F03461CD36C468AB090
:1022F000D9F8041004AB26481A46C3E9050140F298
:10230000FF71D9614FF400711984224B42F8103FDC
:102310004FF4125133462048FFF7BEFFA5462C3735
:10232000BD46BDE8F08FC0F30A0804F11700184459
:1023300020F0070080083B60FFF754FE68F3532548
:10234000044690B13B6800F11001C7E9083607F177
:102350001403F961CDE900A3CDF808B048460F4A4F
:10236000F96807F11C03FEF7F1FC68F353252A46D0
:1023700020467B68B9680DF073FCD0E704F11700C4
:1023800020F007008008FFF72DFE0446EDE700BFB0
:10239000BD4E0100040000013840010035FC000082
:1023A0002DE9F04F87B00446DDE9105ADDE91269E6
:1023B0000F4693469846A6B3102133465246002056
:1023C000CDF80090CDF81490FEF7EEFA014605F135
:1023D00017000844144B04F007040BF0070BE4004B
:1023E00020F0070003EA412344EA8B1480081C43D1
:1023F0000391FFF7F7FD44EA0554054640B13EB1AD
:10240000334652460399CDF800901030FEF7CCFACF
:10241000434622463946284607B0BDE8F04F0DF046
:102420001FBC3146D3E700BF00FE0F000EB403B55A
:1024300003AB53F8042B01460448019301F0E4FB7D
:1024400002B05DF804EB03B0704700BFC7FC0000AA
:10245000CA0605D48B064CBF02490349FFF7E6BF05
:10246000704700BF0C7001000B7001002DE9F04FA8
:1024700089B09A46DDE914739DF84CB00593169B1C
:1024800004460D46179E06920493BBF1000F00F020
:10249000858006F0080307930DF0CAFB06F00209D9
:1024A0000246002849D020468549FFF7BFFF8046F5
:1024B000B9F1000F08D016F0440F40D12A4620464B
:1024C0008049FFF7B3FF804406F0010353B17E4B10
:1024D000204653F82B207D4B7D49002A08BF1A4621
:1024E000FFF7A4FF06F00803002B54D0794B2046D9
:1024F00053F82B207849FFF799FF0546069B2BB12F
:102500001A4620467549FFF791FF0544BAF1000FBE
:1025100005D0524620467249FFF788FF05444544DE
:10252000002F49D1049B002B4FD1F30700F1C1804C
:1025300031462046FFF78CFFB5E08046B8E7694B8F
:1025400018680028BFD0684B4FF47A791B684FF4A5
:102550006161B5FBF3F5B5FBF0F300FB135509FB27
:1025600005F5B3FBF1F2B5FBF0FE4FF03C0C01FBBF
:10257000123100FB1E55B1FBFCF309FB05F5B5FB61
:10258000F0F50CFB131120460091CDE901E5574908
:10259000FFF74CFF97E706F00805AFE7BAF1010F28
:1025A00006D1002F65D1049B002B7CD000250CE0C8
:1025B000002FF8D04E485DE04E483B4622464E493B
:1025C0000CF09BFA049B002B69D0DFF83081DFF818
:1025D0003091049F3146102F204628BF10274FF01E
:1025E000000AFFF735FF554546DC059B4946204666
:1025F0001A78FFF71BFF4FF0010A1AF0070F03D1FB
:1026000041462046FFF712FF57453CD9059B4946F6
:10261000204613F80A20FFF709FF0AF1010ABAF170
:10262000100FEAD14FF0000A20463649FFF7FEFEB0
:102630005246059B20469A5C334B995C11F0970FEC
:1026400008BF2E223149FFF7F1FE0AF1010ABAF163
:10265000100F1DD01AF0070F03D141462046FFF797
:10266000E5FE57455246E4D841462046FFF7DEFED8
:10267000EBE720485D46A0E741462046FFF7D6FE3F
:102680000AF1010AAFE720462149FFF7CFFEC4E770
:10269000059B3B440593049BDB1B049399D1BBF141
:1026A000000F7FF442AF204609B0BDE8F04F0DF0B7
:1026B000FDBA2046054A0649FFF7B8FE38E700BFD5
:1026C000014F0100054F0100BC420100FC4E01001A
:1026D000385B0100D04201002A4F0100304F010059
:1026E000344F0100401800203C1800200E4F01001C
:1026F000F5FC0000C7FC0000093C0000D76F01009A
:10270000394F01003F4F010010710100414F01009E
:10271000D56F01002DE9F0410F884B6805460C4646
:1027200090468E6886B0C7F382175BB1144A9B1A35
:1027300043F3CF01002920DB2078C0F3C200FFF76C
:1027400089FD0346214651F8102B6088C2F34A22C6
:10275000002A01EB020408BF00210022C0F30B1085
:10276000CDE90408CDE902142846314601970092CC
:10277000FFF77CFE06B0BDE8F0810023E2E700BF72
:10278000903F010042F20F7373B58B4228BF0B4696
:1027900005680446052168460D4A0BF037FF0646DA
:1027A000636828460B225B680A490DF072FA636879
:1027B0003246694628465B680DF06BFA63681B2257
:1027C00028465B6804490DF064FA02B070BD00BF92
:1027D000D2560100604F0100444F01000021012347
:1027E000064A904206D8064A01B901231360054BF8
:1027F00018607047012140085B00F2E740420F007B
:102800003C18002040180020014B00201960704740
:10281000581800200122024B02481A700DF046BAE7
:1028200041230020004301000148FFF7ABBF00BF78
:102830000043010010B5064B0C461868FFF74CFB2F
:102840002146BDE8104003460F220248184700BF4A
:102850005818002000430100F8B50D460446064F05
:102860004618B44201D12846F8BD14F8011BBB68D4
:1028700001485B689847F4E7B03C01000449431EF7
:102880000F3013F8012F8A5C83421A70F9D1704718
:10289000A64F0100F0B50746264E8DB001AD0C469F
:1028A0000FCE0FC50FCE0FC596E8070085E80700CD
:1028B0003846002F39D0002C39D0381F0246214627
:1028C00010344B780D781B0443EA0563CD7804314E
:1028D0002B4311F8025C8C4243EA052342F8043F83
:1028E000EFD10421144C8A07036916D1C3F30742C0
:1028F000A55C1A0EA25C42EA0562C3F30725655D7A
:10290000DBB2E35C42EA054242EA032221F0030320
:1029100030336B4453F82C3C534050F8042F0131B2
:1029200053402C290361DED101200DB0F0BD2046BB
:10293000FBE700BFB8400100A64F01002DE9F04FB2
:10294000002703689DB002934368DFF8BCA103939E
:102950008368DDE902460493C36805930369DDE9F2
:1029600004BE0693436907938369DDE9062C089347
:10297000C36998460993089B0093CD590CAB2DBAB7
:102980005AF8049BDD514FEAF223A94483EAB213BB
:10299000009D83EA72634B4425EA020502EA0C09B2
:1029A00085EA09052B44434486EA0B054FEA74384F
:1029B00088EAB408254006EA0B0985EA090588EA91
:1029C000B4580437A844402F03EB0E054344DE46B9
:1029D000DDF8008040F088804FF0100A4B490A91E2
:1029E00051460AF1010A0DF1700E0AF00F070EEBC5
:1029F000870757F8407C01F00F094FEAB748019765
:102A000088EAF71801F10E0707F00F070EEB8707AA
:102A100057F8407C09314FEAF74E8EEA774ECDF8F1
:102A20002CE001F00F010DF1700E0EEB81010EEBA9
:102A3000890959F840EC51F8401CBAF1400F714433
:102A4000DDF804E088EADE08DDF82CE041448EEA97
:102A5000972E714405EA02084FEAF52E2CEA050785
:102A600087EA08078EEAB51EDDF828808EEA756EC3
:102A7000774458F804EF49F8401C77440F44009914
:102A80004FEA733E394484EA0607CDF828808EEA7F
:102A9000B30E07EA030704EA06088EEAB35E87EA84
:102AA000080777440F4401EB0B0ECDF800C0B34686
:102AB00022D102993944016003991944049B416071
:102AC00023448360059B3344C360069B73440361C6
:102AD000079B2B444361089B13448361099B634418
:102AE000C3611DB0BDE8F08FB346CDF800C02646E7
:102AF00094461C462A4640E7944626462A461C46EB
:102B000075463B466CE700BF104301004C43010093
:102B100010B50446C8B1702200210DF007F90B4B27
:102B20000B4A0C49C4E900230B4B0C48C4E90213BF
:102B30000B4BC4E9040301200A4BA36103F1745356
:102B4000A3F52303A3F69243E36110BD85AE67BBF3
:102B500067E6096A72F36E3C3AF54FA57F520E5153
:102B60008C68059BABD9831F01480BF00DBC00BFDF
:102B70001044010038B5044618B90F4B0F485B6884
:102B800098476168B1F5683F10D0B1F5680F0DD076
:102B90000B4DA9420AD011F46861206807D00146A4
:102BA000084810F06FFA00232360656038BD1422D6
:102BB00010F0E9FFF9E700BFAC040020A6500100C7
:102BC0002C5F5CA95C1D002008B560B34368B3F5B9
:102BD000683F0ED0B3F5680F18D0144A934220D046
:102BE00000684FF0FF324FF0FF330AF037FA58B168
:102BF00015E001220368D3E8EF1F002903D1C3E8E1
:102C0000E02F0028F7D10AD1002008BD0368084A48
:102C10001B7803F5807352F82330002BF4D005485D
:102C2000F3E70548F1E76FF4E040EEE72C5F5CA9BD
:102C300000000350E98FFFFFEA8FFFFF08B520B3C4
:102C40004368B3F5683F09D0B3F5680F13D0114A54
:102C500093421DD000680AF07BFA14E0002203685A
:102C6000D3E8EF1F012903D1C3E8E02F0028F7D1F3
:102C700009D0094808BD00210368084A1B7803F5FC
:102C8000807342F823100020F4E76FF4E040F1E78E
:102C90000348EFE72C5F5CA9E98FFFFF00000350BA
:102CA000EA8FFFFF10B5044618B91D4B1D485B683D
:102CB00098476368B3F5683F2FD0B3F5680F2CD001
:102CC000194A934219D1236803BB4FF0FF324FF0EA
:102CD000FF33214615480AF0CDF808B923681BB91F
:102CE0000F4B13485B68984714220021206810F0AE
:102CF0004AFF4FF46863636008E0B3F5683F0DD89E
:102D00003A2B03D040F6BA629342DED1206810F02D
:102D100000FA636843F03A03636010BD054AF3E7C5
:102D2000AC040020A65001002C5F5CA95C1D0020B3
:102D3000CC5001003A00003A08B50649402314225D
:102D4000054810F091F9BDE80840044904480BF02B
:102D50008DBB00BF5C1800205C1D002018440100E2
:102D60002C440100014910220A60704710ED00E078
:102D700072B6404080F31188BFF36F8F01B5FEF744
:102D800081FB002802D0BFF34F8F30BFBDE8014068
:102D900062B6BFF36F8F704772B6494081F31188F6
:102DA00001B5FEF76FFB002802D0BFF34F8F20BFA5
:102DB000BDE8014080F3118862B670472DE9F04705
:102DC00081460C4600AF00294CD0D1E900126E4676
:102DD0008AB0A3686D464FF0050AA8462548C5E9A4
:102DE0000723C5E9050148F810AF002342464FF418
:102DF00021512148FFF750FAD4E90312B54663691F
:102E0000AD461E48C5E90723C5E90501C5F810A070
:102E1000002342464FF421511748FFF73DFAB546CB
:102E200088B0E3696D464FF0030AA846144AC5E925
:102E3000052348F810AF002342464FF4C2510E4814
:102E4000FFF72AFAB546A369AD460E4AC5F810A0A9
:102E5000C5E90523002342464FF4C2510648FFF757
:102E60001BFAB5462146484609F064FEBD46BDE85A
:102E7000F08700BFF950010078400100285101009F
:102E8000575101006651010040B2002807DB0123C1
:102E90004109034A00F01F00834042F82130704787
:102EA00000E100E040B200280CDB012206494309A2
:102EB00000F01F008240203341F82320BFF34F8FE2
:102EC000BFF36F8F704700BF00E100E0054B420980
:102ED00053F82220012300F01F0003FA00F01040F5
:102EE000704700BF00E100E040B2002801F101019D
:102EF000ACBF00F16040064B4FEA4111C9B2ABBF15
:102F000000F5614000F00F0080F80013195470477D
:102F100014ED00E030BFFFF7FDBF00BF0B4A08B55E
:102F20000B4B22F07F029A60BFF34F8FBFF36F8F7E
:102F3000D3F8882022F47002C3F8882009F0BAFE82
:102F40000AF026FF00F0F2FB09F0FEFE0000000090
:102F500000ED00E0094A0A49936809689867D96753
:102F600008494B6843F080534B60002383F311887A
:102F7000BFF36F8F9368D86F704700BF08210020A0
:102F80004049010000ED00E016498A684FF030002A
:102F90001044EFF3098C80E8F01F202080F31288A2
:102FA000BFF36F8F104F4FF000664A698A603E6032
:102FB0004FF07404141920680C4C2060906F0023AB
:102FC000936780F3118802F1300090E8F01F8CF3D2
:102FD000098802F1000004B50DF002FBBDE80440D1
:102FE000704700000821002004ED00E0781D00205B
:102FF0001EF0040F0CBFEFF30880EFF30980816926
:1030000011F8021C0229FFD001B50DF0DAFA01BD5A
:1030100042F8203C009B0B4942F81C3C019B21F0EC
:10302000010142F8183C029B42F8081C42F8143C8B
:103030004FF0807342F8043C0023203A0265836716
:10304000704700BF0D1100000A4B446F98600A4B97
:103050001C60436E83F30B88104681F309880021BE
:1030600063B681F31188BFF36F8F00220023FEF750
:103070004DF800BF08210020781D002001B5EFF3B6
:103080000580A0F110004FEAC0000449014409C9BD
:103090009847BDE80140024908470000003D010093
:1030A00001310000114B124A2DE9F041D518013DC4
:1030B000B5FBF3F5DFF83C805D430F4B074608EBAB
:1030C0000304013CB4FBF3F403FB04540E1B304631
:1030D0000A4910F04BFD701942460021083E10F0DD
:1030E00052FD7E6704F10800BDE8F0810100000098
:1030F000000000000400000004000000A8400100DF
:10310000044B99685869884203D003494FF08052B4
:103110000A6070470821002004ED00E02DE9F0412D
:1031200086B006460D4600AF0224444B4FF4825150
:103130007B6143483C6107F110020DF055FA414BA9
:103140009B6ADB0678D5404B3D484FF48251C7E976
:10315000044307F110020DF047FA1120394B9B6A26
:103160001C070BD5394B36487B6102234FF4825143
:103170003B6107F110020DF037FA1220314CA36ABF
:10318000990723D5E846324B07F110027B610223F1
:103190004FF482513B612A480DF026FA636BA26A14
:1031A000120612D588B06A462A492548C2E9051395
:1031B00003234FF4C25142F8103F0DF015FAC546F3
:1031C0001EB1A36A23F08003A36213201D4B9B6AE8
:1031D000DE070BD5204B1A487B6102234FF4825146
:1031E0003B6107F110020DF0FFF91420154B9B6AAB
:1031F0009C060BD5194B12487B6102234FF4825178
:103200003B6107F110020DF0EFF915200D4B183757
:103210009A6AD10658BF9A6A9A6A920642BF5A6A57
:1032200022F400525A629A6A42F0FF029A62002324
:103230002B70BD46BDE8F08110208FE7945101004E
:103240007840010000ED00E0AA510100DD510100CD
:10325000F0510100085201001E5201003D520100D0
:103260002DE9F04186B006460D4600AF0224474BDB
:103270004FF482517B6146483C6107F110020DF02A
:10328000B3F9444B9B6AD9046DD5434B40484FF486
:103290008251C7E9044307F110020DF0A5F9172088
:1032A0003C4B9B6A1A050BD53C4B39487B6102238A
:1032B0004FF482513B6107F110020DF095F918208F
:1032C000344CA36A9B0523D5E846354B30487B61D7
:1032D000022307F110023B614FF482510DF084F993
:1032E000A36BA26A100412D588B06A462D492848FB
:1032F000C2E9051303234FF4C25142F8103F0DF009
:1033000073F9C5461EB1A36A23F40043A3621920D2
:10331000204B9B6A59050BD5234B1D487B6102232B
:103320004FF482513B6107F110020DF05DF91A2054
:10333000184B9A6AD20518D51C4B15487B6102239D
:103340004FF482513B6107F110020DF04DF91B2043
:10335000104A1837936A43F47F43936200232B701B
:10336000BD46BDE8F08116209AE79B6A9B04EFD525
:103370000F4B07487B6102234FF482513B6107F1F9
:1033800010020DF031F91C20E2E700BF6C52010081
:103390007840010000ED00E082520100DD510100A3
:1033A00093520100AC520100C1520100DC520100F5
:1033B0003D52010010B586B002243E4B4FF48251BD
:1033C0003D4804AA059304940DF00EF93B4B9B6A0B
:1033D00099016CD53A4B38484FF4825104AACDE993
:1033E00004430DF001F91E20344B9B6ADA010AD523
:1033F000344B3148059302234FF4825104AA0493BD
:103400000DF0F2F81F202D4B9B6ADB020AD5022437
:103410002D4B29484FF4825104AA059304940DF0D2
:10342000E3F82046254B9B6A1C030AD5274B22480C
:10343000059302234FF4825104AA04930DF0D4F8AB
:1034400021201E4B9B6A59030AD5214B1A4805932C
:1034500002234FF4825104AA04930DF0C5F82220F0
:10346000164B9B6A9A030AD51A4B134805930223FD
:103470004FF4825104AA04930DF0B6F823200F4BA9
:103480009B6ADB030AD5144B0B48059302234FF4C8
:10349000825104AA04930DF0A7F82420074A936AE6
:1034A0006FEA03436FEA1343936206B010BD1D2019
:1034B0009AE700BFF45201007840010000ED00E0FF
:1034C0000C5301001F5301003953010063530100E5
:1034D00081530100A6530100C05301002DE9F043C0
:1034E0008BB07A4B0446D3F80480002600AFC8F3B3
:1034F000080586F31188BFF36F8F02F07F43B3F1A5
:103500007F4F0ED102F00C03082B19D1704B4FF4F2
:103510008251FB6102236F48BB6107F118020DF075
:1035200063F8002634460023FB71EB1E092B00F2E2
:10353000AC80DFE803F00A9FA29BAAAAAAAAAAA5C8
:1035400010074CBF0C460126EDE7E9464FF0020894
:10355000614B07F11802FB614FF482515D48C7F8D7
:1035600018800DF041F80023584DFB71EB6A9A0763
:103570000BD55A4BC7E906834FF48251554807F1E2
:1035800018020DF031F8002341E0EB6A002B01DA5C
:10359000534BEFE7EB6A5B00F5D5524B07F118028E
:1035A000C7E906834FF482514A480DF01DF86B6954
:1035B000A26943F480736B61BFF34F8FBFF36F8FCA
:1035C0006B6932F8022C23F480736B61BFF34F8F69
:1035D000BFF36F8F4DF602739A4208D0AB6ADBB22D
:1035E000002B36D00120F91DFFF798FD40E088B090
:1035F00023686A463C493748C2E9051303234FF460
:10360000C25142F8103F0CF0EFFFCD462368FA7923
:10361000DAB907F1080504F1200C2A462068616830
:10362000083403C264451546F7D17A6A002E47D0A4
:10363000C2F3080121B96FEA52226FEA42227A628C
:10364000184607F10801FFF7B9FB2C37BD46BDE866
:10365000F083AB6A13F47F4F04D00120F91DFFF70C
:10366000FFFD05E0AB6AB3F5803F8CD3FFF7A2FE08
:103670000346CCE70020F91DB6E70020F91DEEE770
:103680001A4BFB610223BB6176E7194A18F4F87FF5
:10369000E8468AB0174B18BF13466A461649103DD4
:1036A000C2E905134FF400731384144BD5614FF432
:1036B0001151084842F8103F0CF096FFC54662E7EA
:1036C00022F4FF7222F00102B9E700BF00ED00E032
:1036D0001954010078400100445401005B5401007A
:1036E0007C5401008A540100A9540100C554010012
:1036F00000540100EB530100E954010004000001F3
:10370000044B5A6942F010025A615A6942F48062CD
:103710005A61704700ED00E0EFF30880EFF3098194
:1037200001B57246FFF7DAFE01BD00BF002320217C
:103730000348C2180133452B82F80013F9D17047B2
:1037400000E100E0002080F31488BFF36F8F0020B9
:1037500080F30A8880F30B88FDF79CFF00200E4958
:103760000860BFF34F8F0D4880F3088800F03EF8E3
:10377000202080F311880A484FF40061401880F33C
:103780000988EFF314800221084380F31488BFF303
:103790006F8FFFF7C3FB000094ED00E0A04E002008
:1037A000603D0020BFF34F8F0549064BCA6802F405
:1037B000E0621343CB60BFF34F8F00BFFDE700BF54
:1037C00000ED00E00400FA05002318460649D1F890
:1037D0009020C2F30722934200DB7047C1F8983073
:1037E000C1F8A0000133F6E700ED00E010B572B6B5
:1037F000002484F31388FFF7E7FF23464FF0FF30E0
:103800000C4A03F120010133102B42F82100F8D1BA
:1038100000234FF0FF30074A03F160010133102B02
:1038200042F82100F8D162B6BFF34F8FBFF36F8F1C
:1038300010BD00BF00E100E0084B9B6883420BD144
:10384000EFF3058343B1064B5A6842F080525A6049
:103850005A6A22F400425A620AF028BA082100206B
:1038600000ED00E01FB5094C094A23460121094833
:1038700000F02AF900230393074B0121E41A01A861
:103880000193029400F02AF904B010BD0000072053
:10389000000000203C440100A808002010B50C7A6C
:1038A0000B6804F01F0223F01F031A43CB6864095E
:1038B00023F01F03054943EA440343F00103C1F821
:1038C0009800C1F89C20C1F8A03010BD00ED00E0C8
:1038D00080B500AF88B06A46074BC2E905300323C4
:1038E00042F8103F00234FF4C2510448FEF7D4FCC5
:1038F0006FF01500BD4680BD005501005840010025
:103900002DE9F04F144606464FF0000987B05F4D91
:1039100000AF79607B68994535DAD6F80480B8F154
:10392000000F54D0B8F11F0F1BD918F01F0F18D17A
:10393000D6F800B01BF01F0F13D158460CF057FEFD
:10394000824608EB0B0001380CF051FE82451FD077
:103950006FF0150A6C4688B06A464D49C2E9051AEF
:1039600005E06C4688B06A464A4BC2E90539032334
:1039700042F8103F00234FF4C2514748FEF78CFC39
:10398000A5466FF0150420461C37BD46BDE8F08FF4
:103990001AF1160FDED05445DCDDC5F898A0D5F835
:1039A0009C00C5F898A0D5F8A02020F01F0042F098
:1039B0001F08D6E900211144904201F1FF3B1ED1BE
:1039C000D84508D131465FFA8AF00CF019FE09F1AA
:1039D00001090C369EE7C5F898A0D5F89C3021F077
:1039E0001F0103F01F030B433146C5F89C30E0B2C2
:1039F0000CF006FE10F1160FC3D0441CE7E7013AA5
:103A0000D845E0B222F01F02C5F898A008D1D5F839
:103A1000A030314603F01F031343C5F8A030E7E799
:103A2000D5F8A01001F01F010A43C5F8A0203146C7
:103A30000CF0E6FD10F1160FA3D0C5F898A0D5F84C
:103A40009C203B7C08F1FF3862F304033B74D5F8FB
:103A5000A0303A7C5B0863F347123A74D6E900322F
:103A60001344BB6023F01F03441C4344A3EB0B032C
:103A7000E0B223F01F0307287B6102D9FFF728FF7C
:103A8000B8E707F10801FFF709FFB6E700ED00E02E
:103A90004955010026550100584001000522044BFC
:103AA000C3F89420BFF34F8FBFF36F8F704700BFF1
:103AB00000ED00E0BFF35F8F0022024BC3F89420BB
:103AC000704700BF00ED00E010B5034C2278FFF70F
:103AD00017FF207010BD00BF422300202DE9F74FD3
:103AE000294D8A4606464FF00008AB46274FD04581
:103AF0001BDAD6F80490B9F1000F3FD031680846C0
:103B000001910CF074FD0199044609EB01000138A4
:103B10000CF06DFD84424FF014021D4B08D002FBE7
:103B200008F36FF015024BF8032003B0BDE8F08FE7
:103B300014F1160F2C60F8D01978A142F5DD02FBC4
:103B400008B0C7F89840C7F89840D7F89C4000F1F3
:103B50000801007B64F304000871D7F8A0000C7919
:103B6000400860F347140C71D7F89C1021F01F0136
:103B70006960D7F8A01021F01F01296108F1010840
:103B800014350C36B3E700BF7C1D002000ED00E0CB
:103B90004223002038B50E4D2C68082C15D8002083
:103BA000FFF788FF0B4B0C4AC3F8C020844205D1B5
:103BB0000A4B00201C70FFF771FF38BD696801EBEC
:103BC0000011FFF76BFE0130F0E74FF0FF30F4E734
:103BD0004844010000ED00E0AAFF44004223002019
:103BE00008B5024B1B689847002008BD901D0020B7
:103BF000034B044A1860937843F0020393707047B4
:103C0000901D0020D4020020F0B587B007460E4674
:103C100014460021102268461D460FF0B4FF02230F
:103C20008DF80230054B2A4621466846CDE90476D8
:103C300001930AF017FD07B0F0BD00BF4106010077
:103C400008B50649064821F00701C1F1005202F506
:103C5000E0220BF00EFA002008BD00BFF372002036
:103C6000A06600201022174B70B5C3F840244FF413
:103C70007F03D3F83021D3F83431072A1BD1023B1C
:103C8000032B02D8104AD35CABB14FF0502401266D
:103C900000250520C4F81866C4F814560EF040FA42
:103CA0003046C4F814660EF03BFAC4F81456C4F853
:103CB0001856002070BD4FF050230022C3F8142680
:103CC000F7E700BF003000507B5501000E4B402944
:103CD00028BF402170B51D460C4C4618B04203F178
:103CE000020304D1002305F81130074870BD0278A3
:103CF0001209A25C03F8022C10F8012B02F00F024B
:103D0000A25C03F8012CE9E761230020F7550100CC
:103D100030B503788BB0044607AD032B21D8DFE81C
:103D200003F0021A1C1E12492846FCF785FB059574
:103D300063781E210493A3780E4A0393E3780E4818
:103D400002932379019363790093A3790AF05EFCCF
:103D500009480BB030BD0949E6E70949E4E70949DC
:103D6000E2E70A212846084A0AF050FCDFE700BFD4
:103D7000B2550100D455010043230020B95501007C
:103D8000C0550100CA550100D765010030B50024B7
:103D9000094D0A4B85B02846029303940FF018FB97
:103DA00002AB284600934FF4A3620A23044909F0AA
:103DB000C1FB204605B030BD581100200856010057
:103DC000F02E00200146014809F02ABC58110020BD
:103DD000037830B5012B13D0022B27D07BB90A46CC
:103DE000184B03F1100453F8045BA34242F8045B40
:103DF000F9D11B78137043884B731B0A8B7330BD4A
:103E00000A46104B03F1100453F8045BA34242F836
:103E1000045BF9D11B7813704368C3F307224B731B
:103E20001B0CCB731B0A8A730B74E8E700F11003B9
:103E300050F8042B984241F8042BF9D103780B7009
:103E4000DDE700BF11560100012838B505460CBF5B
:103E5000064807480DF0CAFE044620B101210C3087
:103E60000DF020FF2576204638BD00BFF807002062
:103E7000740700200246002070B50B460A49D1E8BD
:103E8000EF4FC1E8E50F002DF9D124B9BDE870402E
:103E90000120FFF7D9BF01212082217604F10C0017
:103EA0000DF000FF204670BD3801002070B50446BB
:103EB0000F2C0D461046194605D80D2C0DD9BDE81E
:103EC0007040FFF7D7BF132C07D10C480DF08EFEC2
:103ED000044638B90024204670BD02460B4645B161
:103EE0000748F3E701210C300DF0DCFE01232376B7
:103EF000F1E70120BDE87040FFF7A6BF7C08002075
:103F0000CC07002070B58EB06C4606460A4D0D2ECB
:103F10000FCD0FC40FCD0FC40FCD0FC495E8030014
:103F200084E803009DBF0EAB03EB860656F8380C01
:103F300002480EB070BD00BFE44001002A560100E7
:103F400038B5C368B3F801401B786BB90F21204620
:103F500002F06EFF054640B9084B1A8822B96FEA95
:103F600004506FEA1050188038BD012102F05EFE47
:103F70002846BDE838400CF018BE00BF18230020CA
:103F800010B5084C0146052294F86F0003F08AF83A
:103F900038B994F86F000422BDE81040024903F0DC
:103FA00081B810BD000000209855010080B5C3689D
:103FB00000AF88B06A461B7806490748C2E9051376
:103FC00003234FF4C45142F8103F0CF0D9FBBD4617
:103FD00080BD00BF32560100E03F01007FB5064BB7
:103FE0004FF4825105930223044804AA04930CF071
:103FF000C7FB07B05DF804FB5A560100E03F010023
:1040000098B5014600AF0D480DF0F7FD0C490D487D
:104010000FF0CDF900280EDA6C4688B06A460A4BDC
:104020004FF4C251C2E905300323084842F8103F5B
:104030000CF0A6FBA546BD4698BD00BF3C01002084
:10404000200300207812002074560100E03F010098
:104050000B46B0B50D8A00AF04462946D868FFF775
:1040600035FE8AB06A46094BC2E90750C2E90534F9
:1040700040F202439384064B4FF43251054842F814
:10408000103F0CF07DFBBD46B0BD00BF9156010056
:1040900005000001E03F010080B5012100AF0C30B8
:1040A0000DF034FE88B06A46037806490648C2E936
:1040B000051303234FF4C25142F8103F0CF060FB8C
:1040C000BD4680BDB3560100E03F01002DE9F0413F
:1040D000C56800AF2E78B6B9B5F801800F2140460B
:1040E00002F0A6FE044688B96C4688B06A460C4BBE
:1040F0004FF4C251C2E9053803230A4842F8103F81
:104100000CF03EFBA546BD46BDE8F081EB7831469C
:10411000437202F08BFD20460CF047FDF3E700BF31
:10412000D5560100E03F0100B0B5C36800AF1C8860
:104130000121204602F07CFE80B96D4688B06A46B7
:10414000084B4FF4C251C2E905340323064842F834
:10415000103F0CF015FBAD46BD46B0BD0CF025FD83
:10416000FAE700BFFB560100E03F0100B0B5C368AD
:1041700000AFB3F801400121204602F059FE80B99A
:104180006D4688B06A46084B4FF4C251C2E9053407
:104190000323064842F8103F0CF0F2FAAD46BD4644
:1041A000B0BD0CF002FDFAE7FB560100E03F010054
:1041B000B0B5044600AF02EBC303934203D12046DF
:1041C000FFF746FF18E0104610F8085BA54219D12A
:1041D0000B8A5078984211D96D4688B06A460A49D0
:1041E000D461C2E9051304234FF40151074842F892
:1041F000103F0CF0C5FAAD46BD46B0BD0846536849
:104200009847F9E70246D8E71F570100E03F010051
:104210002DE9F0415D4800AF0DF005FD0446002892
:104220007CD0037E012B7CD0032B40F0A980038A35
:10423000032B0CD84FF40073554A564956480BF0DF
:1042400058F8404080F311884FF0030002DF04214A
:1042500004F10C000DF05AFD4588B0F800802046AE
:1042600005F00EFA4D4EC8F30B0326F81030238AE2
:104270009D4213D06E4688B06A464949D561C2E96D
:10428000051304234FF40151464842F8103F0CF047
:1042900077FAB546204605F099FA26E0204605F063
:1042A000EFF90F2136F8100002F0C2FD0546A0B963
:1042B000204605F0E5F96D4688B036F810306A46BC
:1042C0003949C2E9051303234FF4C251354842F876
:1042D000103F0CF055FAAD46DCE721464FEA1832A4
:1042E00002F03EFB28460CF060FC304BD3F83C312A
:1042F000A3B12F492F480FF05AF800280EDA6C4668
:1043000088B06A462C4B4FF4C251C2E905300323F2
:10431000244842F8103F0CF033FAA546BD46BDE8EC
:10432000F081038A012B0CD840F65D23184A194905
:1043300019480AF0DEFF404080F311884FF0030077
:1043400002DF022104F10C000DF0E0FC05460078CC
:104350000CF0ECF983070CD440F661230C4A1749A2
:104360000D480AF0C6FF404080F311884FF003006B
:1043700002DF04232146124A2878FFF719FF89E754
:104380006D4688B06A460F499BE700BF3C0100209C
:1043900041570100755701008E5701001A23002074
:1043A000AB570100E03F0100CF57010000000020A3
:1043B000200300207812002074560100F1570100FC
:1043C000084501001F58010010B5012104460C30BA
:1043D0000DF09CFC2146BDE810400723014A0078FF
:1043E000FFF7E6BE28450100F8B5C5680121B5F81C
:1043F000016000AF304602F01BFD044680B96C46F8
:1044000088B06A46104B4FF4C251C2E90536032307
:104410000E4842F8103F0CF0B3F9A546BD46F8BD72
:104420002B783BB9D5F80330C0F8AD30D5F807305C
:10443000C0F8B1304FF48051201D0CF08AF92046AD
:104440000CF0B3FBEAE700BFFB560100E03F0100C0
:104450002DE9F843064600AF907A8846144605F0E9
:1044600007F9414D854218D0A47AE846204605F068
:10447000FFF88AB06A463D4BC2E90740C2E90536FB
:10448000062355624FF44251394842F8103F0CF070
:1044900077F9C546BD46BDE8F883204605F0F0F83B
:1044A0004FF00C09334D09FB00504388B34216D03E
:1044B000204605F0E5F809FB00506C4688B06A46D6
:1044C0004388D36104232C492948C2E905164FF4D7
:1044D000025142F8103F0CF053F9A546DAE7274E97
:1044E000D6F8380120B105F071F90023C6F838314B
:1044F000204605F0C5F80C2606FB00504368ABB11A
:10450000B8F1000F12D1204605F0BAF8012106FBE0
:1045100000504268D2E90003127A03F01F06B1404E
:104520005B09DAB100EB83000CF013F9204605F0CB
:10453000A7F80C2606FB00508368002BAAD0204663
:1045400005F09EF8704305F80080204605F098F8C5
:1045500006FB0055A86808F06BFE9BE7C94300EB1B
:1045600083000CF010F9E1E75008002033580100F7
:10457000E03F0100941D0020685801000000002069
:1045800038B5042104460C300DF0C0FB45780178A5
:1045900022464088FFF75CFF25B1BDE8384002485D
:1045A00008F046BE38BD00BF2001002038B5032109
:1045B00004460C300DF0AAFBE36805782246197812
:1045C000B0F80100FFF744FF25B1BDE838400248CC
:1045D00008F02EBE38BD00BF200100202DE9F04FAD
:1045E00087B00123D0F80C80018A98F8004000AF12
:1045F00003EB84038B4240F28D806D468AB06A469D
:10460000C2E90731052346484FF42151C2E90504A8
:10461000444842F8103F0CF0B3F8AD461C37BD4695
:10462000BDE8F08F6C4688B06A463F4B4FF4C251EC
:10463000C2E9053B03233B4842F8103F0CF0A0F8C9
:10464000A546013598F800309D42E7DA08EB85036E
:10465000B3F801B00F215846B3F8036002F0E8FB4D
:1046600004460028DED000F1280B46B34FF02003AB
:10467000EFF3118283F31288BFF36F8FE3696BB19D
:10468000013BE36182F31188BFF36F8F204602F094
:104690002DF9013E08F0CCFDB6B2E6E7636993B9A7
:1046A00082F31188BFF36F8F02234FF482511D48AC
:1046B00007F11002C7F814A03B610CF061F8204626
:1046C0000CF073FABDE7A16918688B42606108BFFE
:1046D000A06182F31188BFF36F8F4FF02002EFF3D8
:1046E000118182F31288BFF36F8FDA68E261C3F839
:1046F0000C90C3F80090626A4AB9C4E9083381F3A8
:104700001188BFF36F8F584608F00EFFBEE71360A5
:104710006362F4E70025DFF814A0A94692E700BF22
:104720009B580100E03F0100C5580100E15801001D
:10473000F0B583B0C5680121B5F8016000AF30461F
:1047400002F076FB044688B96C4688B06A462C4B6A
:104750004FF4C251C2E9053603232A4842F8103FFC
:104760000CF00EF8A5460C37BD46F0BD2B78061DA3
:104770001A2B17D1C378012B28D14FF48061304612
:104780000BF0E7FF42050DD4D4F8A03039463B606A
:10479000D4F8A83020467B6002F050FF20460CF091
:1047A00004FAE0E72B788BB9B5F80330A4F89E3013
:1047B000B5F80530A4F8A430B5F80730A4F8A63051
:1047C0006FF4807130460BF0DEFF14E0D6E8AF3FA7
:1047D000DB05F5D52B78202BF2D194F8AC30002BEB
:1047E000EED0013B84F8AC304FF42032002304F1CA
:1047F000580008F03FFF204602F068FBCEE700BFFC
:10480000FB560100E03F010010B5C1E900239DF80F
:1048100008300C460B7204F033FF0C22024B02FBF3
:1048200000335C6010BD00BF941D00202DE9F047EF
:104830004FF0FF324FF0FF33064617480F460DF09A
:10484000D5F94FF00008044600F10C0A012150464A
:104850000DF028FA204684F8188004F011FF4FF07C
:104860000C090E4D09FB00504680204604F008FF5D
:1048700009FB0050C0F80880204604F001FF09FB46
:10488000005503215046C5F804800DF00FFA06804C
:1048900087702046BDE8F08750080020941D002056
:1048A0002DE9F04387B0804615460C4600AF21B98C
:1048B000FFF7BCFF044600285DD0012200213846E6
:1048C0000EF0C5FC204604F0DBFE0C23DFF8B490AC
:1048D00003FB0090876020460DF0BEF901462A4890
:1048E0000DF0B8F94FF4A0220023384608F0C6FCBA
:1048F000064688B14FF4A973244A254925480AF091
:10490000F8FC3246414624480AF0F3FC404080F36C
:1049100011884FF0030002DF204604F0B1FE0C23A3
:10492000584319F80060F6B16D4688B06A461B4BD3
:10493000D661C2E9053804234FF40251184842F801
:10494000103F0BF01DFF2046AD4604F03FFF092E3F
:1049500014D00D2E0CBF6FF00B006FF004001C374D
:10496000BD46BDE8F08315B12C600020F7E7204676
:1049700004F02CFFF9E76FF06800F0E76FF06E00CD
:10498000EDE700BF941D00204401002041570100C5
:10499000F85801008E570100015901002D590100FE
:1049A000E03F010070B588B006460D4642F22F0088
:1049B000002101AAFFF774FF044660B10B4B4FF4CE
:1049C0008251079302230A4806AA06930BF0D8FEE9
:1049D000204608B070BD0198C368B3F8012032804A
:1049E000B3F803302B8004F0F1FEF1E749590100E0
:1049F000E03F0100F7B5144B054693F99B300C4698
:104A0000002B1DDA14B9204603B0F0BD082C4FF07E
:104A1000000142F2180001AA264628BF0826FFF727
:104A20003FFF0028F0D1019F3246F9682846013146
:104A30000FF09CF8384604F0C9FE3544A41BE1E7AA
:104A40006FF08500E0E700BF000000202DE9F0478F
:104A50008CB00026A94BB0F80180198848F4704248
:104A60000478914208BF1E80054608BF012602AFA8
:104A7000A4B33C2C22D101F02BFB6FF0800110304D
:104A80000BF081FE0020FFF77BFA054670B99C4BC6
:104A90004FF482517B6202239A483B6207F1200265
:104AA0000BF06EFE2837BD46BDE8F087447200214A
:104AB00002F0BCF828460CF078F8F3E76D4688B0B1
:104AC00002AA914B4FF4C451C2E9053403238D4827
:104AD00042F8103F0BF054FEAD46E3E7C37800F117
:104AE0000409012B08BF894B484608BF93F86F4063
:104AF0000BF018FE494640B307F110000BF007FE1B
:104B000005F1110107F109000BF02EFE01233B72A4
:104B1000EB78012B27D04846FFF7FAF86C4688B0AF
:104B200002AA7B4B4FF4E251C2E905304FF4007307
:104B30009383784B734842F8103F0BF021FE13210A
:104B4000A54640460BF027FEACE720460BF0DEFE04
:104B5000014607F110000BF00CFE494607F1080072
:104B60000BF007FED4E707F11000FFF709FAEB7826
:104B70000446012B0AD101F0ABFA82466FF08001A6
:104B800010300BF000FE50460BF0C6FF002CC2D0D8
:104B900020460022B5F8013007F1100120F8883BCB
:104BA0000BF0E7FDB5F81730A4F89E30B5F81930D2
:104BB000A4F8A430B5F81B30A4F8A630EB786272E4
:104BC000012BE37016D107F1080104F18F000BF0FF
:104BD000D0FD01F07DFA217A4C4AC1EBC1011144AC
:104BE00004F196000BF0C5FDD2F8E4305D0601D566
:104BF00001F02EFC0721204602F018F81EB1012119
:104C0000204602F013F820460CF005F8A37A072B93
:104C10006ED1231DD3E8AF3F13F4805F3B4D29D104
:104C2000E3781BB195F8D830180723D5022142F25A
:104C30001600FFF7FBFD064600285BD002210C3072
:104C40000DF034F8238800220380314642F216002A
:104C5000FFF726FE70B16E4688B002AA2E4B4FF4C5
:104C6000C251C2E905300323264842F8103F0BF039
:104C700087FDB54695F8D930D90716D5002102230E
:104C800020461A4600910BF0BFFD70B16E4688B009
:104C900002AA224B4FF4C251C2E90530032319483E
:104CA00042F8103F0BF06CFDB54695F8D8309A06E7
:104CB0001ED5D5F85C319B689B0719D5B91D381DE9
:104CC000FFF770FEA0B92046FA88B9880BF07EFD88
:104CD00070B16D4688B002AA114B4FF4C251C2E9BF
:104CE00005300323074842F8103F0BF049FDAD465D
:104CF0002046E0E66FF06800ADE700BF1823002013
:104D000069590100E03F01008A59010000000020BC
:104D1000A359010003000001BF590100E05901003F
:104D2000F759010000B5C16889B00B7801A88DF86A
:104D30000030B1F801300431ADF8013011F8013C18
:104D40008DF80330B1F80730ADF81730B1F80930FD
:104D5000ADF81930B1F80B30ADF81B304B7B8DF846
:104D60001D300BF006FD07490DF10B000BF0FCFCAC
:104D70000DF111000BF0F8FC6846FFF767FE09B073
:104D80005DF804FBAC550100024BD3F85C315B6964
:104D9000184700BF00000020F8B505460C4600AFDC
:104DA00019B9FFF743FD044618B340F635439D4259
:104DB00019D12046FFF7E8FF054688B16E4688B056
:104DC0006A460D4B4FF4C251C2E9053003230B482C
:104DD00042F8103F0BF0D4FC2046B54604F0F6FC38
:104DE0002846BD46F8BD214605480CF033FF002596
:104DF000F6E76FF06805F3E7135A0100E03F0100A2
:104E0000440100202DE9F04186B000AF044604F0D3
:104E100037FC324B33F81050A07A04F029FC2146BD
:104E20000EF007FA2E4B93F88A309B0614D50F210B
:104E3000284601F0FDFF044690B96C4688B06A46EA
:104E4000284B4FF4C451C2E905350323264842F8E4
:104E5000103F0BF095FCA5461837BD46BDE8F08124
:104E6000837A073B012B0ED9204B4FF484517B6191
:104E700002231D483B6107F110020BF081FC204624
:104E80000BF093FEE8E70BF090FE052140F635406D
:104E9000FFF7CCFC044658B9154B4FF482517B61A7
:104EA000022311483B6107F110020BF069FCD3E7C4
:104EB00000F10C08012140460CF0F8FE0126042107
:104EC000067040460CF0F2FE002305808670C37029
:104ED000214640F63540FFF75FFFBDE71A2300206B
:104EE00000000020355A0100E03F01005F5A010038
:104EF0008B5A0100F0B583B0C36800AFD9789A78B7
:104F00001E8842EA01223A8059791A79B4B242EAFB
:104F100001227A80D9799A79204642EA0122BA8020
:104F20001A7A5B7A012142EA0323FB8001F080FFB9
:104F30000546A8B96D4688B06A461E4B4FF4C2516B
:104F4000C2E9053403231C4842F8103F0BF018FC5B
:104F50000221AD4620460BF0A3FC0C37BD46F0BD48
:104F6000394601F0F7FF38B91E2120460BF098FCB6
:104F700028460BF01AFEF0E70E2142F22000FFF760
:104F800055FC04460028F3D00E210C300CF08EFEA8
:104F900000230680C0F80A303B88214643807B8886
:104FA0008380BB88C380FB88038142F22000FFF727
:104FB000F3FEDDE7FB560100E03F01002DE9F04F75
:104FC000DFF8548187B0DFF8549100AFD8F80C3087
:104FD00053486FF39433C8F80C3001F0DDFD451CE5
:104FE0004FF0FF324FF0FF3329464B4809F0CCF821
:104FF00060B140F6DE234A464A494B480AF079F947
:10500000404080F311884FF0030002DF4FF0030AA5
:10501000414E15B908F0A8FDD8E7F368C3F386330D
:10502000022B60D9042B68D1337B002B5ED1002288
:1050300000233E480CF0DFFD044660B94FF42763BF
:105040004A463B4938480AF054F9404080F31188F9
:105050004FF0030002DFDFF8DCB04FF0FF334FF01A
:10506000FF32354808F00AF9DBF838318BB1334BA1
:105070004FF482517B610223314807F110023B61FA
:105080000BF07EFBDBF8380104F0A0FB0023CBF82B
:10509000383120460CF0E0FDCBF838012046FFF710
:1050A00073FE00B3EB4688B06A46264B4FF4C251FC
:1050B000C2E905300323224842F8103F0BF060FBA1
:1050C000DD461D4808F0B4F8204604F0D9FA0C2259
:1050D0001D4B1F2102FB003022464088FFF7B8F924
:1050E000204604F073FB1436013D92E7012BFAD100
:1050F0003069383802F0BEF8F5E76C4688B06A4689
:1051000012490F48C2E905134FF4C45142F810AFD9
:105110000BF036FBA546E6E7E4020020415701000C
:10512000F8020020F85801008E57010044010020C9
:10513000526801000000002020010020AE5A01004A
:10514000E03F0100135A0100941D0020C95A0100DC
:105150002DE9F041044600F10C0630460CF0E6FD66
:10516000B4F810800546B8F1010F0CD840F68563FD
:105170001B4A1C491C480AF0BCF8404080F31188C7
:105180004FF0030002DF304602210CF0BFFD07465E
:1051900000780BF0CBFAC20706460CD440F68963C0
:1051A0000F4A124910480AF0A4F8404080F31188D1
:1051B0004FF0030002DF052321460D4A3878FEF741
:1051C000F7FFB30707D56369A4F8108013FA85F5D4
:1051D000E560BDE8F0812046BDE8F04104F0F6BA94
:1051E00041570100755701008E570100EA5A01002E
:1051F000E0440100B0B5037E0446012B00AF06D0A9
:10520000032B12D1FEF7FCFE0020BD46B0BDC368E3
:1052100018780BF08BFAC207054602D52046FFF737
:1052200097FFAB07F0D52046ECE76D4688B06A469D
:1052300008490948C2E9051303234FF4C25142F853
:10524000103F0BF09DFA2046AD4604F0BFFA6FF018
:105250001500DAE7035B0100E03F0100084A03465E
:10526000D2F85C0130B9D96839B1596929B1C2F8AD
:105270005C3170476FF0770070476FF01500704732
:10528000000000202DE9F84F3D4C00AF04213D48BF
:105290000BF05FFA3C4DE2793C4B2046012A88BF77
:1052A0001D466E46FEF734FD8AB06A46384BA3466B
:1052B000C2E905350125374BD0611362364B4FF4F7
:1052C0002351364842F8103F0BF05AFADFF8D080ED
:1052D000B546DFF8C890334EE3790BF1070B9D42DA
:1052E00038DB94F870506E462846FEF70BFE8CB003
:1052F0006A46B4F87210B4F87630C2E907514FF438
:1053000000755362DFF8A0C0284BC2E905C01585BF
:105310004FF4535142F8103F20480BF031FAB54694
:1053200094F871603046FEF7EDFD8AB06A46B4F835
:1053300074301F49C2E907631E4BC2E9051095840A
:105340004FF43351154842F8103F0BF019FABD469F
:10535000BDE8F88F5846FEF7DBFCEA468AB06A469D
:1053600040F20133C2E90565D06113844FF4135153
:10537000484642F8108F0BF003FA0135D546ABE7EB
:1053800000000020D40000200D700100175B010018
:105390001B5B01000002010304000002E03F01006A
:1053A000040000012A5B01003B5B010006000001D4
:1053B000795B010005000001F0B589B0674D00AFD1
:1053C000D5F85C31996811F001011AD140F603401B
:1053D0003A1DFFF765FA0446002840F0BA80786865
:1053E000C3681B785BB905F1D403D3E8AF2F02F093
:1053F0000902D3E8EF1FC3E8E42F002CF9D104F031
:10540000E5F9002141F203003A1DFFF749FA04468D
:10541000002840F09E807B68514EDA68D2F8010087
:10542000D2F8051003C6184604F0D0F9214641F21F
:1054300001003A1DFFF734FA0446002840F0898045
:105440007868C3685A7885F870205A88A5F8722061
:105450001A7985F87120B3F80720A5F87420B3F8FD
:105460000530A5F8763004F0B1F9214641F202008A
:105470003A1DFFF715FA044600286AD1D7F804C090
:10548000DCF80C20531C4132344618685968083344
:1054900003C493422646F7D1604604F097F901F021
:1054A00087F80446002854D195F88A309B061CD40E
:1054B0002C4B4FF48451FB6102232B48BB6107F155
:1054C00018020BF05DF995F87C305E0650D4274B3E
:1054D0004FF48251FB6102232348BB6107F118029C
:1054E0000BF04EF96FF0120433E0072140F6334021
:1054F000FFF79CF90646002800F0248107210C30B4
:105500000CF0D4FB1B2303700623C0F80240847107
:10551000447004712246C370314640F63340FFF7B1
:10552000BFF90446A8B9012140F63140FFF77EF9E2
:105530000646002800F0068101210C300CF0C5FB66
:105540002246314640F63140FFF7AAF904460028CA
:10555000B9D020462437BD46F0BD00BF0000002072
:1055600078000020A05B0100E03F0100CE5B01005D
:10557000002142F2030007F10802FFF791F9044607
:105580000028E6D1BB68964EDA68D2F80100D2F85E
:10559000051003C6184604F019F9214642F202002C
:1055A00007F10802FFF77CF904460028D1D1BC6856
:1055B000E368B3F8012091B249B1D97839B1A5F8BF
:1055C0000421DA78114606F128000DF040FE20464D
:1055D00004F0FCF895F87C6016F0200618D1022142
:1055E00040F66D40FFF722F90446002800F0AA803B
:1055F00002210C300CF05AFB012321460370467047
:10560000324640F66D40FFF74BF904460028A0D122
:1056100095F89C301C0713D5002142F21C0007F1BD
:105620000802FFF73DF90446002892D1B868C36824
:10563000D3F80120D3F80530C5E9382304F0C6F8C3
:1056400095F8D830980621D5391DB81CFFF7AAF96E
:10565000044600287FF47DAF042142F22400FFF7C6
:10566000E5F8064600286DD004210C300CF01EFB36
:105670007B8822460380BB883146438042F2240067
:10568000FFF70EF9044600287FF463AF082142F2C9
:105690000100FFF7CBF80446002853D008210C3056
:1056A0000CF004FB95F8D82012F0020F14BF2F2342
:1056B0000F23910695F8D92048BF43F0400312F01C
:1056C000090F4FF0000218BF43F400630370C3F3E7
:1056D0000723214643708270C27002714271827149
:1056E000C27142F20100FFF7DBF8044600287FF4A4
:1056F00030AF95F87C30B5F804119A0625D4D1B9AD
:1057000041F2050007F10802FFF7CAF80446002835
:105710007FF41FAFB5F80431BC684BB9E368B3F848
:105720000120A5F804219A882E4811460DF08FFD1E
:10573000204604F04BF8082140F60140FFF776F8C8
:10574000044690B96FF0680403E70029F3D1264BB3
:105750004FF48251FB6102232448BB6107F1180218
:105760000BF00EF86FF00404F3E608210C300CF097
:105770009DFA102303708823002243700226202301
:1057800021468270C670027142718271C37140F607
:105790000140FFF785F8044600287FF4DAAE0146A1
:1057A0003A1D4FF60140FFF77BF818B3104BC7E9DD
:1057B00006634FF484510D4807F118020AF0E0FF28
:1057C00000F068FB044600287FF4C3AE01F0DEFD64
:1057D000044600287FF4BDAEFFF754FDB9E600BFD4
:1057E000D800002008010020F25B0100E03F01002A
:1057F000155C01007B686E46DC688AB0B4F8013045
:10580000032B96BF434A444952F823106A46D3619A
:105810004FF4007341481384414BC2E9050142F83B
:10582000103F4FF413513F480AF0AAFFB4F801208B
:10583000B546022AB4F803304CD1032B4AD83A4A71
:1058400052F823106E468AB06A46D3614FF4007353
:1058500036481384324BC2E9050142F8103F4FF439
:10586000135130480AF08CFFB546637994F806C0AE
:10587000032B98BF2E4AB4F80760D4F809006C4691
:105880008CB094BF52F8231023496A46C2E9073C02
:105890004FF40073DFF89CE09385274BC2E905E1E4
:1058A000C2E909604FF4735142F8103F1D480AF0F5
:1058B00067FFA546786803F089FF00214FF6024094
:1058C0003A1DFEF7EDFF044630B11C4BFB6102238D
:1058D000BB616EE71049B5E77868C368B3F801307B
:1058E000A5F8C13003F072FF95F8C1305B077FF572
:1058F00067AF21464FF603403A1DFEF7D1FF08B1CE
:105900000F4BE3E77868C3685B7885F8C03003F035
:105910005DFF55E7D04401002A560100395C0100C3
:1059200004000001E03F0100C0440100525C01009E
:10593000B04401006A5C010007000001975C0100AF
:10594000C05C010010B5FFF737FD034B1B6813B1B6
:10595000BDE81040184710BD0C1E0020F0B58FB0F8
:105960003B4D0646D5F85C3108AF83B9394B6FF033
:1059700012047B6102234FF48251374807F1100271
:105980003B610AF0FDFE20461C37BD46F0BD6FF0BE
:10599000020105F1D4000AF0F6FE01210AF0D9FE59
:1059A00010EA010450D12D4B1E600A4605F5907097
:1059B0000DF04DFC05F5A2700DF024FC0022002333
:1059C000CDE906236FF008034FF48062CDE902436E
:1059D000CDE90044224B23490494234807F0B6FA4A
:1059E000224921480DF07AFB21480DF0F1FC6FF0BF
:1059F00007034FF496621F491D48009407F09AFD73
:105A00001D491B480DF06AFBD5F85C31DB689847EF
:105A1000044678B16D4688B02A46184B4FF4C251FF
:105A2000C5E9053003230C4842F8103F0AF0A8FEF0
:105A3000AD46A8E71EB9FFF7BFFC0446A3E705F192
:105A4000C40007F071FD9EE76FF077049BE700BF8D
:105A500000000020E95C0100E03F01000C1E002076
:105A6000BD4F000008340020F8110020025D010045
:105A70007812002008380020085D01000E5D01004A
:105A8000004870475B4C0100F8B506460024094DFC
:105A9000EF79E3B29F4202D86FF0010007E0294698
:105AA00030460AF01CFF0735631C08B12046F8BDDC
:105AB0001C46EEE70000002037B504460D4671B1E4
:105AC000284612490AF00BFF48B929461048C4EB92
:105AD000C40420440AF010FF002003B030BD684623
